{
  "_format": "hh-sol-artifact-1",
  "contractName": "ImageGenerator",
  "sourceName": "contracts/ImageGenerator.sol",
  "abi": [
    {
      "inputs": [],
      "stateMutability": "nonpayable",
      "type": "constructor"
    },
    {
      "anonymous": false,
      "inputs": [
        {
          "indexed": true,
          "internalType": "address",
          "name": "owner",
          "type": "address"
        },
        {
          "indexed": true,
          "internalType": "address",
          "name": "approved",
          "type": "address"
        },
        {
          "indexed": true,
          "internalType": "uint256",
          "name": "tokenId",
          "type": "uint256"
        }
      ],
      "name": "Approval",
      "type": "event"
    },
    {
      "anonymous": false,
      "inputs": [
        {
          "indexed": true,
          "internalType": "address",
          "name": "owner",
          "type": "address"
        },
        {
          "indexed": true,
          "internalType": "address",
          "name": "operator",
          "type": "address"
        },
        {
          "indexed": false,
          "internalType": "bool",
          "name": "approved",
          "type": "bool"
        }
      ],
      "name": "ApprovalForAll",
      "type": "event"
    },
    {
      "anonymous": false,
      "inputs": [
        {
          "indexed": false,
          "internalType": "address",
          "name": "sender",
          "type": "address"
        },
        {
          "indexed": false,
          "internalType": "uint256",
          "name": "tokenId",
          "type": "uint256"
        }
      ],
      "name": "NewCryptoShapeMinted",
      "type": "event"
    },
    {
      "anonymous": false,
      "inputs": [
        {
          "indexed": true,
          "internalType": "address",
          "name": "from",
          "type": "address"
        },
        {
          "indexed": true,
          "internalType": "address",
          "name": "to",
          "type": "address"
        },
        {
          "indexed": true,
          "internalType": "uint256",
          "name": "tokenId",
          "type": "uint256"
        }
      ],
      "name": "Transfer",
      "type": "event"
    },
    {
      "inputs": [],
      "name": "MAX_SUPPLY",
      "outputs": [
        {
          "internalType": "uint256",
          "name": "",
          "type": "uint256"
        }
      ],
      "stateMutability": "view",
      "type": "function"
    },
    {
      "inputs": [
        {
          "internalType": "address",
          "name": "to",
          "type": "address"
        },
        {
          "internalType": "uint256",
          "name": "tokenId",
          "type": "uint256"
        }
      ],
      "name": "approve",
      "outputs": [],
      "stateMutability": "nonpayable",
      "type": "function"
    },
    {
      "inputs": [
        {
          "internalType": "address",
          "name": "owner",
          "type": "address"
        }
      ],
      "name": "balanceOf",
      "outputs": [
        {
          "internalType": "uint256",
          "name": "",
          "type": "uint256"
        }
      ],
      "stateMutability": "view",
      "type": "function"
    },
    {
      "inputs": [
        {
          "internalType": "uint256",
          "name": "id",
          "type": "uint256"
        }
      ],
      "name": "drawRandomPattern",
      "outputs": [
        {
          "internalType": "string",
          "name": "",
          "type": "string"
        }
      ],
      "stateMutability": "view",
      "type": "function"
    },
    {
      "inputs": [],
      "name": "generateNewImage",
      "outputs": [],
      "stateMutability": "nonpayable",
      "type": "function"
    },
    {
      "inputs": [
        {
          "internalType": "uint256",
          "name": "tokenId",
          "type": "uint256"
        }
      ],
      "name": "getApproved",
      "outputs": [
        {
          "internalType": "address",
          "name": "",
          "type": "address"
        }
      ],
      "stateMutability": "view",
      "type": "function"
    },
    {
      "inputs": [
        {
          "internalType": "address",
          "name": "owner",
          "type": "address"
        },
        {
          "internalType": "address",
          "name": "operator",
          "type": "address"
        }
      ],
      "name": "isApprovedForAll",
      "outputs": [
        {
          "internalType": "bool",
          "name": "",
          "type": "bool"
        }
      ],
      "stateMutability": "view",
      "type": "function"
    },
    {
      "inputs": [],
      "name": "name",
      "outputs": [
        {
          "internalType": "string",
          "name": "",
          "type": "string"
        }
      ],
      "stateMutability": "view",
      "type": "function"
    },
    {
      "inputs": [
        {
          "internalType": "uint256",
          "name": "tokenId",
          "type": "uint256"
        }
      ],
      "name": "ownerOf",
      "outputs": [
        {
          "internalType": "address",
          "name": "",
          "type": "address"
        }
      ],
      "stateMutability": "view",
      "type": "function"
    },
    {
      "inputs": [
        {
          "internalType": "uint256",
          "name": "",
          "type": "uint256"
        }
      ],
      "name": "palette",
      "outputs": [
        {
          "internalType": "string",
          "name": "",
          "type": "string"
        }
      ],
      "stateMutability": "view",
      "type": "function"
    },
    {
      "inputs": [
        {
          "internalType": "address",
          "name": "from",
          "type": "address"
        },
        {
          "internalType": "address",
          "name": "to",
          "type": "address"
        },
        {
          "internalType": "uint256",
          "name": "tokenId",
          "type": "uint256"
        }
      ],
      "name": "safeTransferFrom",
      "outputs": [],
      "stateMutability": "nonpayable",
      "type": "function"
    },
    {
      "inputs": [
        {
          "internalType": "address",
          "name": "from",
          "type": "address"
        },
        {
          "internalType": "address",
          "name": "to",
          "type": "address"
        },
        {
          "internalType": "uint256",
          "name": "tokenId",
          "type": "uint256"
        },
        {
          "internalType": "bytes",
          "name": "_data",
          "type": "bytes"
        }
      ],
      "name": "safeTransferFrom",
      "outputs": [],
      "stateMutability": "nonpayable",
      "type": "function"
    },
    {
      "inputs": [
        {
          "internalType": "address",
          "name": "operator",
          "type": "address"
        },
        {
          "internalType": "bool",
          "name": "approved",
          "type": "bool"
        }
      ],
      "name": "setApprovalForAll",
      "outputs": [],
      "stateMutability": "nonpayable",
      "type": "function"
    },
    {
      "inputs": [
        {
          "internalType": "bytes4",
          "name": "interfaceId",
          "type": "bytes4"
        }
      ],
      "name": "supportsInterface",
      "outputs": [
        {
          "internalType": "bool",
          "name": "",
          "type": "bool"
        }
      ],
      "stateMutability": "view",
      "type": "function"
    },
    {
      "inputs": [],
      "name": "symbol",
      "outputs": [
        {
          "internalType": "string",
          "name": "",
          "type": "string"
        }
      ],
      "stateMutability": "view",
      "type": "function"
    },
    {
      "inputs": [
        {
          "internalType": "uint256",
          "name": "tokenId",
          "type": "uint256"
        }
      ],
      "name": "tokenURI",
      "outputs": [
        {
          "internalType": "string",
          "name": "",
          "type": "string"
        }
      ],
      "stateMutability": "view",
      "type": "function"
    },
    {
      "inputs": [
        {
          "internalType": "address",
          "name": "from",
          "type": "address"
        },
        {
          "internalType": "address",
          "name": "to",
          "type": "address"
        },
        {
          "internalType": "uint256",
          "name": "tokenId",
          "type": "uint256"
        }
      ],
      "name": "transferFrom",
      "outputs": [],
      "stateMutability": "nonpayable",
      "type": "function"
    }
  ],
  "bytecode": "0x60806040526040518061010001604052806040518060400160405280600781526020017f234639343134340000000000000000000000000000000000000000000000000081525081526020016040518060400160405280600781526020017f234633373232430000000000000000000000000000000000000000000000000081525081526020016040518060400160405280600781526020017f234639433734460000000000000000000000000000000000000000000000000081525081526020016040518060400160405280600781526020017f233930424536440000000000000000000000000000000000000000000000000081525081526020016040518060400160405280600781526020017f233930424536440000000000000000000000000000000000000000000000000081525081526020016040518060400160405280600781526020017f233537373539300000000000000000000000000000000000000000000000000081525081526020016040518060400160405280600781526020017f234335433335450000000000000000000000000000000000000000000000000081525081526020016040518060400160405280600781526020017f23363638326666000000000000000000000000000000000000000000000000008152508152506008906008620001f892919062000431565b506040518060e0016040528060ac81526020016200449360ac9139600990805190602001906200022a92919062000498565b5060405180610180016040528061015681526020016200453f6101569139600a90805190602001906200025f92919062000498565b5061015e600b553480156200027357600080fd5b506040518060400160405280600f81526020017f43727970746f5368617065734e465400000000000000000000000000000000008152506040518060400160405280600681526020017f43525953485000000000000000000000000000000000000000000000000000008152508160009080519060200190620002f892919062000498565b5080600190805190602001906200031192919062000498565b5050506200035f6040518060400160405280601e81526020017f54686973206973206d79204e465420636f6e74726163742e20576f61682100008152506200036560201b6200135d1760201c565b620006e3565b62000405816040516024016200037c9190620005f7565b6040516020818303038152906040527f41304fac000000000000000000000000000000000000000000000000000000007bffffffffffffffffffffffffffffffffffffffffffffffffffffffff19166020820180517bffffffffffffffffffffffffffffffffffffffffffffffffffffffff83818316178352505050506200040860201b60201c565b50565b60008151905060006a636f6e736f6c652e6c6f679050602083016000808483855afa5050505050565b82805482825590600052602060002090810192821562000485579160200282015b82811115620004845782518290805190602001906200047392919062000498565b509160200191906001019062000452565b5b50905062000494919062000529565b5090565b828054620004a6906200066d565b90600052602060002090601f016020900481019282620004ca576000855562000516565b82601f10620004e557805160ff191683800117855562000516565b8280016001018555821562000516579182015b8281111562000515578251825591602001919060010190620004f8565b5b50905062000525919062000551565b5090565b5b808211156200054d576000818162000543919062000570565b506001016200052a565b5090565b5b808211156200056c57600081600090555060010162000552565b5090565b5080546200057e906200066d565b6000825580601f10620005925750620005b3565b601f016020900490600052602060002090810190620005b2919062000551565b5b50565b6000620005c3826200061b565b620005cf818562000626565b9350620005e181856020860162000637565b620005ec81620006d2565b840191505092915050565b60006020820190508181036000830152620006138184620005b6565b905092915050565b600081519050919050565b600082825260208201905092915050565b60005b83811015620006575780820151818401526020810190506200063a565b8381111562000667576000848401525b50505050565b600060028204905060018216806200068657607f821691505b602082108114156200069d576200069c620006a3565b5b50919050565b7f4e487b7100000000000000000000000000000000000000000000000000000000600052602260045260246000fd5b6000601f19601f8301169050919050565b613da080620006f36000396000f3fe608060405234801561001057600080fd5b506004361061010b5760003560e01c80636352211e116100a25780639cb71ef8116100715780639cb71ef8146102b8578063a22cb465146102e8578063b88d4fde14610304578063c87b56dd14610320578063e985e9c5146103505761010b565b80636352211e1461020a5780636998f69f1461023a57806370a082311461026a57806395d89b411461029a5761010b565b8063095ea7b3116100de578063095ea7b31461019857806323b872dd146101b457806332cb6b0c146101d057806342842e0e146101ee5761010b565b806301ffc9a714610110578063058abbc91461014057806306fdde031461014a578063081812fc14610168575b600080fd5b61012a600480360381019061012591906125fc565b610380565b6040516101379190613480565b60405180910390f35b610148610462565b005b610152610694565b60405161015f919061349b565b60405180910390f35b610182600480360381019061017d919061264e565b610726565b60405161018f91906133f0565b60405180910390f35b6101b260048036038101906101ad91906125c0565b6107ab565b005b6101ce60048036038101906101c991906124ba565b6108c3565b005b6101d8610923565b6040516101e591906136fb565b60405180910390f35b610208600480360381019061020391906124ba565b610929565b005b610224600480360381019061021f919061264e565b610949565b60405161023191906133f0565b60405180910390f35b610254600480360381019061024f919061264e565b6109fb565b604051610261919061349b565b60405180910390f35b610284600480360381019061027f9190612455565b610d9e565b60405161029191906136fb565b60405180910390f35b6102a2610e56565b6040516102af919061349b565b60405180910390f35b6102d260048036038101906102cd919061264e565b610ee8565b6040516102df919061349b565b60405180910390f35b61030260048036038101906102fd9190612584565b610f94565b005b61031e60048036038101906103199190612509565b611115565b005b61033a6004803603810190610335919061264e565b611177565b604051610347919061349b565b60405180910390f35b61036a6004803603810190610365919061247e565b6112c9565b6040516103779190613480565b60405180910390f35b60007f80ac58cd000000000000000000000000000000000000000000000000000000007bffffffffffffffffffffffffffffffffffffffffffffffffffffffff1916827bffffffffffffffffffffffffffffffffffffffffffffffffffffffff1916148061044b57507f5b5e139f000000000000000000000000000000000000000000000000000000007bffffffffffffffffffffffffffffffffffffffffffffffffffffffff1916827bffffffffffffffffffffffffffffffffffffffffffffffffffffffff1916145b8061045b575061045a826113f6565b5b9050919050565b600061046e6007611460565b9050600061047b826109fb565b905060006009600a836040516020016104969392919061324d565b60405160208183030381529060405290506104e56040518060400160405280601581526020017f0a2d2d2d2d2d2d2d2d2d2d2d2d2d2d2d2d2d2d2d2d000000000000000000000081525061135d565b6104ee8161135d565b61052c6040518060400160405280601581526020017f2d2d2d2d2d2d2d2d2d2d2d2d2d2d2d2d2d2d2d2d0a000000000000000000000081525061135d565b600061056861053a8561146e565b6105438461161b565b604051602001610554929190613289565b60405160208183030381529060405261161b565b905060008160405160200161057d9190613328565b60405160208183030381529060405290506105cc6040518060400160405280601581526020017f0a2d2d2d2d2d2d2d2d2d2d2d2d2d2d2d2d2d2d2d2d000000000000000000000081525061135d565b6105d58161135d565b6106136040518060400160405280601581526020017f2d2d2d2d2d2d2d2d2d2d2d2d2d2d2d2d2d2d2d2d0a000000000000000000000081525061135d565b61061d33866117d9565b61062785826117f7565b610631600761186b565b610654604051806060016040528060258152602001613b7a602591398633611881565b7f6cc9cc06a8579f30ef4f4a15fa7dd0e3d6e4a593adfb6176413c8669d3ac61393386604051610685929190613457565b60405180910390a15050505050565b6060600080546106a39061399a565b80601f01602080910402602001604051908101604052809291908181526020018280546106cf9061399a565b801561071c5780601f106106f15761010080835404028352916020019161071c565b820191906000526020600020905b8154815290600101906020018083116106ff57829003601f168201915b5050505050905090565b600061073182611920565b610770576040517f08c379a00000000000000000000000000000000000000000000000000000000081526004016107679061365b565b60405180910390fd5b6004600083815260200190815260200160002060009054906101000a900473ffffffffffffffffffffffffffffffffffffffff169050919050565b60006107b682610949565b90508073ffffffffffffffffffffffffffffffffffffffff168373ffffffffffffffffffffffffffffffffffffffff161415610827576040517f08c379a000000000000000000000000000000000000000000000000000000000815260040161081e906136bb565b60405180910390fd5b8073ffffffffffffffffffffffffffffffffffffffff1661084661198c565b73ffffffffffffffffffffffffffffffffffffffff16148061087557506108748161086f61198c565b6112c9565b5b6108b4576040517f08c379a00000000000000000000000000000000000000000000000000000000081526004016108ab9061359b565b60405180910390fd5b6108be8383611994565b505050565b6108d46108ce61198c565b82611a4d565b610913576040517f08c379a000000000000000000000000000000000000000000000000000000000815260040161090a906136db565b60405180910390fd5b61091e838383611b2b565b505050565b6103e881565b61094483838360405180602001604052806000815250611115565b505050565b6000806002600084815260200190815260200160002060009054906101000a900473ffffffffffffffffffffffffffffffffffffffff169050600073ffffffffffffffffffffffffffffffffffffffff168173ffffffffffffffffffffffffffffffffffffffff1614156109f2576040517f08c379a00000000000000000000000000000000000000000000000000000000081526004016109e9906135db565b60405180910390fd5b80915050919050565b60606000610168610a3442610a0f8661146e565b604051602001610a2092919061338f565b604051602081830303815290604052611d87565b610a3e9190613a1f565b905060006063610a784244610a528861146e565b604051602001610a64939291906133b7565b604051602081830303815290604052611d87565b610a829190613a1f565b905060006064610ac542610aa08689610a9b91906137cf565b61146e565b604051602001610ab192919061338f565b604051602081830303815290604052611d87565b610acf9190613a1f565b90506000600880549050610b0b42610ae68961146e565b604051602001610af792919061338f565b604051602081830303815290604052611d87565b610b159190613a1f565b90506000600c610b4d42610b288a61146e565b604051602001610b3992919061338f565b604051602081830303815290604052611d87565b610b579190613a1f565b6001610b6391906137cf565b90506000610b708261146e565b9050600060088481548110610bae577f4e487b7100000000000000000000000000000000000000000000000000000000600052603260045260246000fd5b90600052602060002001604051602001610bc891906132fb565b60405160208183030381529060405290506032851015610c485760088481548110610c1c577f4e487b7100000000000000000000000000000000000000000000000000000000600052603260045260246000fd5b90600052602060002001604051602001610c3691906132ce565b60405160208183030381529060405290505b60008283604051602001610c5d92919061334a565b60405160208183030381529060405290506000610c798961146e565b604051602001610c89919061322b565b604051602081830303815290604052905060006040518060400160405280601381526020017f2f3e3c2f7061747465726e3e3c2f646566733e00000000000000000000000000815250905060006040518060c00160405280609c8152602001613c7c609c913990506000604051806080016040528060538152602001613d1860539139905060218b11610d36576040518060800160405280604b8152602001613bdf604b91399050610d5b565b60428b10610d5a57604051806080016040528060528152602001613c2a6052913990505b5b6000858588868686604051602001610d78969594939291906131d3565b6040516020818303038152906040529050809d5050505050505050505050505050919050565b60008073ffffffffffffffffffffffffffffffffffffffff168273ffffffffffffffffffffffffffffffffffffffff161415610e0f576040517f08c379a0000000000000000000000000000000000000000000000000000000008152600401610e06906135bb565b60405180910390fd5b600360008373ffffffffffffffffffffffffffffffffffffffff1673ffffffffffffffffffffffffffffffffffffffff168152602001908152602001600020549050919050565b606060018054610e659061399a565b80601f0160208091040260200160405190810160405280929190818152602001828054610e919061399a565b8015610ede5780601f10610eb357610100808354040283529160200191610ede565b820191906000526020600020905b815481529060010190602001808311610ec157829003601f168201915b5050505050905090565b60088181548110610ef857600080fd5b906000526020600020016000915090508054610f139061399a565b80601f0160208091040260200160405190810160405280929190818152602001828054610f3f9061399a565b8015610f8c5780601f10610f6157610100808354040283529160200191610f8c565b820191906000526020600020905b815481529060010190602001808311610f6f57829003601f168201915b505050505081565b610f9c61198c565b73ffffffffffffffffffffffffffffffffffffffff168273ffffffffffffffffffffffffffffffffffffffff16141561100a576040517f08c379a00000000000000000000000000000000000000000000000000000000081526004016110019061355b565b60405180910390fd5b806005600061101761198c565b73ffffffffffffffffffffffffffffffffffffffff1673ffffffffffffffffffffffffffffffffffffffff16815260200190815260200160002060008473ffffffffffffffffffffffffffffffffffffffff1673ffffffffffffffffffffffffffffffffffffffff16815260200190815260200160002060006101000a81548160ff0219169083151502179055508173ffffffffffffffffffffffffffffffffffffffff166110c461198c565b73ffffffffffffffffffffffffffffffffffffffff167f17307eab39ab6107e8899845ad3d59bd9653f200f220920489ca2b5937696c31836040516111099190613480565b60405180910390a35050565b61112661112061198c565b83611a4d565b611165576040517f08c379a000000000000000000000000000000000000000000000000000000000815260040161115c906136db565b60405180910390fd5b61117184848484611dc6565b50505050565b606061118282611920565b6111c1576040517f08c379a00000000000000000000000000000000000000000000000000000000081526004016111b89061363b565b60405180910390fd5b60006006600084815260200190815260200160002080546111e19061399a565b80601f016020809104026020016040519081016040528092919081815260200182805461120d9061399a565b801561125a5780601f1061122f5761010080835404028352916020019161125a565b820191906000526020600020905b81548152906001019060200180831161123d57829003601f168201915b50505050509050600061126b611e22565b90506000815114156112815781925050506112c4565b6000825111156112b657808260405160200161129e9291906131af565b604051602081830303815290604052925050506112c4565b6112bf84611e39565b925050505b919050565b6000600560008473ffffffffffffffffffffffffffffffffffffffff1673ffffffffffffffffffffffffffffffffffffffff16815260200190815260200160002060008373ffffffffffffffffffffffffffffffffffffffff1673ffffffffffffffffffffffffffffffffffffffff16815260200190815260200160002060009054906101000a900460ff16905092915050565b6113f381604051602401611371919061349b565b6040516020818303038152906040527f41304fac000000000000000000000000000000000000000000000000000000007bffffffffffffffffffffffffffffffffffffffffffffffffffffffff19166020820180517bffffffffffffffffffffffffffffffffffffffffffffffffffffffff8381831617835250505050611ee0565b50565b60007f01ffc9a7000000000000000000000000000000000000000000000000000000007bffffffffffffffffffffffffffffffffffffffffffffffffffffffff1916827bffffffffffffffffffffffffffffffffffffffffffffffffffffffff1916149050919050565b600081600001549050919050565b606060008214156114b6576040518060400160405280600181526020017f30000000000000000000000000000000000000000000000000000000000000008152509050611616565b600082905060005b600082146114e85780806114d1906139cc565b915050600a826114e19190613825565b91506114be565b60008167ffffffffffffffff81111561152a577f4e487b7100000000000000000000000000000000000000000000000000000000600052604160045260246000fd5b6040519080825280601f01601f19166020018201604052801561155c5781602001600182028036833780820191505090505b5090505b6000851461160f5760018261157591906138b0565b9150600a856115849190613a1f565b603061159091906137cf565b60f81b8183815181106115cc577f4e487b7100000000000000000000000000000000000000000000000000000000600052603260045260246000fd5b60200101907effffffffffffffffffffffffffffffffffffffffffffffffffffffffffffff1916908160001a905350600a856116089190613825565b9450611560565b8093505050505b919050565b6060600082519050600081141561164457604051806020016040528060008152509150506117d4565b6000600360028361165591906137cf565b61165f9190613825565b600461166b9190613856565b9050600060208261167c91906137cf565b67ffffffffffffffff8111156116bb577f4e487b7100000000000000000000000000000000000000000000000000000000600052604160045260246000fd5b6040519080825280601f01601f1916602001820160405280156116ed5781602001600182028036833780820191505090505b5090506000604051806060016040528060408152602001613b9f604091399050600181016020830160005b868110156117915760038101905062ffffff818a015116603f8160121c168401518060081b905060ff603f83600c1c1686015116810190508060081b905060ff603f8360061c1686015116810190508060081b905060ff603f831686015116810190508060e01b90508084526004840193505050611718565b5060038606600181146117ab57600281146117bb576117c6565b613d3d60f01b60028303526117c6565b603d60f81b60018303525b508484525050819450505050505b919050565b6117f3828260405180602001604052806000815250611f09565b5050565b61180082611920565b61183f576040517f08c379a0000000000000000000000000000000000000000000000000000000008152600401611836906135fb565b60405180910390fd5b806006600084815260200190815260200160002090805190602001906118669291906122e1565b505050565b6001816000016000828254019250508190555050565b61191b838383604051602401611899939291906134bd565b6040516020818303038152906040527fe3849f79000000000000000000000000000000000000000000000000000000007bffffffffffffffffffffffffffffffffffffffffffffffffffffffff19166020820180517bffffffffffffffffffffffffffffffffffffffffffffffffffffffff8381831617835250505050611ee0565b505050565b60008073ffffffffffffffffffffffffffffffffffffffff166002600084815260200190815260200160002060009054906101000a900473ffffffffffffffffffffffffffffffffffffffff1673ffffffffffffffffffffffffffffffffffffffff1614159050919050565b600033905090565b816004600083815260200190815260200160002060006101000a81548173ffffffffffffffffffffffffffffffffffffffff021916908373ffffffffffffffffffffffffffffffffffffffff160217905550808273ffffffffffffffffffffffffffffffffffffffff16611a0783610949565b73ffffffffffffffffffffffffffffffffffffffff167f8c5be1e5ebec7d5bd14f71427d1e84f3dd0314c0f7b2291e5b200ac8c7c3b92560405160405180910390a45050565b6000611a5882611920565b611a97576040517f08c379a0000000000000000000000000000000000000000000000000000000008152600401611a8e9061357b565b60405180910390fd5b6000611aa283610949565b90508073ffffffffffffffffffffffffffffffffffffffff168473ffffffffffffffffffffffffffffffffffffffff161480611b1157508373ffffffffffffffffffffffffffffffffffffffff16611af984610726565b73ffffffffffffffffffffffffffffffffffffffff16145b80611b225750611b2181856112c9565b5b91505092915050565b8273ffffffffffffffffffffffffffffffffffffffff16611b4b82610949565b73ffffffffffffffffffffffffffffffffffffffff1614611ba1576040517f08c379a0000000000000000000000000000000000000000000000000000000008152600401611b989061367b565b60405180910390fd5b600073ffffffffffffffffffffffffffffffffffffffff168273ffffffffffffffffffffffffffffffffffffffff161415611c11576040517f08c379a0000000000000000000000000000000000000000000000000000000008152600401611c089061353b565b60405180910390fd5b611c1c838383611f64565b611c27600082611994565b6001600360008573ffffffffffffffffffffffffffffffffffffffff1673ffffffffffffffffffffffffffffffffffffffff1681526020019081526020016000206000828254611c7791906138b0565b925050819055506001600360008473ffffffffffffffffffffffffffffffffffffffff1673ffffffffffffffffffffffffffffffffffffffff1681526020019081526020016000206000828254611cce91906137cf565b92505081905550816002600083815260200190815260200160002060006101000a81548173ffffffffffffffffffffffffffffffffffffffff021916908373ffffffffffffffffffffffffffffffffffffffff160217905550808273ffffffffffffffffffffffffffffffffffffffff168473ffffffffffffffffffffffffffffffffffffffff167fddf252ad1be2c89b69c2b068fc378daa952ba7f163c4a11628f55a4df523b3ef60405160405180910390a4505050565b600081611d95600c5461146e565b604051602001611da69291906131af565b6040516020818303038152906040528051906020012060001c9050919050565b611dd1848484611b2b565b611ddd84848484611f69565b611e1c576040517f08c379a0000000000000000000000000000000000000000000000000000000008152600401611e13906134fb565b60405180910390fd5b50505050565b606060405180602001604052806000815250905090565b6060611e4482611920565b611e83576040517f08c379a0000000000000000000000000000000000000000000000000000000008152600401611e7a9061369b565b60405180910390fd5b6000611e8d611e22565b90506000815111611ead5760405180602001604052806000815250611ed8565b80611eb78461146e565b604051602001611ec89291906131af565b6040516020818303038152906040525b915050919050565b60008151905060006a636f6e736f6c652e6c6f679050602083016000808483855afa5050505050565b611f138383612100565b611f206000848484611f69565b611f5f576040517f08c379a0000000000000000000000000000000000000000000000000000000008152600401611f56906134fb565b60405180910390fd5b505050565b505050565b6000611f8a8473ffffffffffffffffffffffffffffffffffffffff166122ce565b156120f3578373ffffffffffffffffffffffffffffffffffffffff1663150b7a02611fb361198c565b8786866040518563ffffffff1660e01b8152600401611fd5949392919061340b565b602060405180830381600087803b158015611fef57600080fd5b505af192505050801561202057506040513d601f19601f8201168201806040525081019061201d9190612625565b60015b6120a3573d8060008114612050576040519150601f19603f3d011682016040523d82523d6000602084013e612055565b606091505b5060008151141561209b576040517f08c379a0000000000000000000000000000000000000000000000000000000008152600401612092906134fb565b60405180910390fd5b805181602001fd5b63150b7a0260e01b7bffffffffffffffffffffffffffffffffffffffffffffffffffffffff1916817bffffffffffffffffffffffffffffffffffffffffffffffffffffffff1916149150506120f8565b600190505b949350505050565b600073ffffffffffffffffffffffffffffffffffffffff168273ffffffffffffffffffffffffffffffffffffffff161415612170576040517f08c379a00000000000000000000000000000000000000000000000000000000081526004016121679061361b565b60405180910390fd5b61217981611920565b156121b9576040517f08c379a00000000000000000000000000000000000000000000000000000000081526004016121b09061351b565b60405180910390fd5b6121c560008383611f64565b6001600360008473ffffffffffffffffffffffffffffffffffffffff1673ffffffffffffffffffffffffffffffffffffffff168152602001908152602001600020600082825461221591906137cf565b92505081905550816002600083815260200190815260200160002060006101000a81548173ffffffffffffffffffffffffffffffffffffffff021916908373ffffffffffffffffffffffffffffffffffffffff160217905550808273ffffffffffffffffffffffffffffffffffffffff16600073ffffffffffffffffffffffffffffffffffffffff167fddf252ad1be2c89b69c2b068fc378daa952ba7f163c4a11628f55a4df523b3ef60405160405180910390a45050565b600080823b905060008111915050919050565b8280546122ed9061399a565b90600052602060002090601f01602090048101928261230f5760008555612356565b82601f1061232857805160ff1916838001178555612356565b82800160010185558215612356579182015b8281111561235557825182559160200191906001019061233a565b5b5090506123639190612367565b5090565b5b80821115612380576000816000905550600101612368565b5090565b600061239761239284613747565b613716565b9050828152602081018484840111156123af57600080fd5b6123ba848285613958565b509392505050565b6000813590506123d181613b1d565b92915050565b6000813590506123e681613b34565b92915050565b6000813590506123fb81613b4b565b92915050565b60008151905061241081613b4b565b92915050565b600082601f83011261242757600080fd5b8135612437848260208601612384565b91505092915050565b60008135905061244f81613b62565b92915050565b60006020828403121561246757600080fd5b6000612475848285016123c2565b91505092915050565b6000806040838503121561249157600080fd5b600061249f858286016123c2565b92505060206124b0858286016123c2565b9150509250929050565b6000806000606084860312156124cf57600080fd5b60006124dd868287016123c2565b93505060206124ee868287016123c2565b92505060406124ff86828701612440565b9150509250925092565b6000806000806080858703121561251f57600080fd5b600061252d878288016123c2565b945050602061253e878288016123c2565b935050604061254f87828801612440565b925050606085013567ffffffffffffffff81111561256c57600080fd5b61257887828801612416565b91505092959194509250565b6000806040838503121561259757600080fd5b60006125a5858286016123c2565b92505060206125b6858286016123d7565b9150509250929050565b600080604083850312156125d357600080fd5b60006125e1858286016123c2565b92505060206125f285828601612440565b9150509250929050565b60006020828403121561260e57600080fd5b600061261c848285016123ec565b91505092915050565b60006020828403121561263757600080fd5b600061264584828501612401565b91505092915050565b60006020828403121561266057600080fd5b600061266e84828501612440565b91505092915050565b612680816138e4565b82525050565b61268f816138f6565b82525050565b60006126a08261378c565b6126aa81856137a2565b93506126ba818560208601613967565b6126c381613b0c565b840191505092915050565b60006126d982613797565b6126e381856137b3565b93506126f3818560208601613967565b6126fc81613b0c565b840191505092915050565b600061271282613797565b61271c81856137c4565b935061272c818560208601613967565b80840191505092915050565b600081546127458161399a565b61274f81866137c4565b9450600182166000811461276a576001811461277b576127ae565b60ff198316865281860193506127ae565b61278485613777565b60005b838110156127a657815481890152600182019150602081019050612787565b838801955050505b50505092915050565b60006127c4601b836137c4565b91507f7b226e616d65223a202243727970746f536861706573202d20232000000000006000830152601b82019050919050565b60006128046032836137b3565b91507f4552433732313a207472616e7366657220746f206e6f6e20455243373231526560008301527f63656976657220696d706c656d656e74657200000000000000000000000000006020830152604082019050919050565b600061286a601c836137b3565b91507f4552433732313a20746f6b656e20616c7265616479206d696e746564000000006000830152602082019050919050565b60006128aa6024836137b3565b91507f4552433732313a207472616e7366657220746f20746865207a65726f2061646460008301527f72657373000000000000000000000000000000000000000000000000000000006020830152604082019050919050565b60006129106019836137b3565b91507f4552433732313a20617070726f766520746f2063616c6c6572000000000000006000830152602082019050919050565b6000612950602c836137b3565b91507f4552433732313a206f70657261746f7220717565727920666f72206e6f6e657860008301527f697374656e7420746f6b656e00000000000000000000000000000000000000006020830152604082019050919050565b60006129b66075836137c4565b91507f222c20226465736372697074696f6e223a20224120686967686c79206163636c60008301527f61696d656420636f6c6c656374696f6e206f66207368617065732067656e657260208301527f61746564206f6e20636861696e2e222c2022696d616765223a2022646174613a60408301527f696d6167652f7376672b786d6c3b6261736536342c00000000000000000000006060830152607582019050919050565b6000612a686034836137c4565b91507f2035203529222020783d22322e3570782220793d22322e35707822207769647460008301527f683d2235707822206865696768743d22357078220000000000000000000000006020830152603482019050919050565b6000612ace6038836137b3565b91507f4552433732313a20617070726f76652063616c6c6572206973206e6f74206f7760008301527f6e6572206e6f7220617070726f76656420666f7220616c6c00000000000000006020830152604082019050919050565b6000612b34602a836137b3565b91507f4552433732313a2062616c616e636520717565727920666f7220746865207a6560008301527f726f2061646472657373000000000000000000000000000000000000000000006020830152604082019050919050565b6000612b9a6029836137b3565b91507f4552433732313a206f776e657220717565727920666f72206e6f6e657869737460008301527f656e7420746f6b656e00000000000000000000000000000000000000000000006020830152604082019050919050565b6000612c00602e836137b3565b91507f45524337323155524953746f726167653a2055524920736574206f66206e6f6e60008301527f6578697374656e7420746f6b656e0000000000000000000000000000000000006020830152604082019050919050565b6000612c666002836137c4565b91507f227d0000000000000000000000000000000000000000000000000000000000006000830152600282019050919050565b6000612ca6601c836137c4565b91507f25223e203c72656374207472616e73666f726d3d22726f7461746528000000006000830152601c82019050919050565b6000612ce66020836137b3565b91507f4552433732313a206d696e7420746f20746865207a65726f20616464726573736000830152602082019050919050565b6000612d266031836137b3565b91507f45524337323155524953746f726167653a2055524920717565727920666f722060008301527f6e6f6e6578697374656e7420746f6b656e0000000000000000000000000000006020830152604082019050919050565b6000612d8c602c836137b3565b91507f4552433732313a20617070726f76656420717565727920666f72206e6f6e657860008301527f697374656e7420746f6b656e00000000000000000000000000000000000000006020830152604082019050919050565b6000612df26029836137b3565b91507f4552433732313a207472616e73666572206f6620746f6b656e2074686174206960008301527f73206e6f74206f776e00000000000000000000000000000000000000000000006020830152604082019050919050565b6000612e586001836137c4565b91507f27000000000000000000000000000000000000000000000000000000000000006000830152600182019050919050565b6000612e98602f836137b3565b91507f4552433732314d657461646174613a2055524920717565727920666f72206e6f60008301527f6e6578697374656e7420746f6b656e00000000000000000000000000000000006020830152604082019050919050565b6000612efe6021836137b3565b91507f4552433732313a20617070726f76616c20746f2063757272656e74206f776e6560008301527f72000000000000000000000000000000000000000000000000000000000000006020830152604082019050919050565b6000612f64600e836137c4565b91507f207374796c653d2766696c6c3a200000000000000000000000000000000000006000830152600e82019050919050565b6000612fa46030836137c4565b91507f207374796c653d2766696c6c3a206e6f6e653b207374726f6b652d776964746860008301527f3a302e333570783b207374726f6b653a000000000000000000000000000000006020830152603082019050919050565b600061300a601d836137c4565b91507f646174613a6170706c69636174696f6e2f6a736f6e3b6261736536342c0000006000830152601d82019050919050565b600061304a6031836137b3565b91507f4552433732313a207472616e736665722063616c6c6572206973206e6f74206f60008301527f776e6572206e6f7220617070726f7665640000000000000000000000000000006020830152604082019050919050565b60006130b06034836137c4565b91507f3c646566733e3c7061747465726e2069643d2273746172222076696577426f7860008301527f3d22302c302c31302c3130222077696474683d220000000000000000000000006020830152603482019050919050565b60006131166006836137c4565b91507f3c2f7376673e00000000000000000000000000000000000000000000000000006000830152600682019050919050565b6000613156600b836137c4565b91507f2522206865696768743d220000000000000000000000000000000000000000006000830152600b82019050919050565b6131928161394e565b82525050565b6131a96131a48261394e565b613a15565b82525050565b60006131bb8285612707565b91506131c78284612707565b91508190509392505050565b60006131df8289612707565b91506131eb8288612707565b91506131f78287612707565b91506132038286612707565b915061320f8285612707565b915061321b8284612707565b9150819050979650505050505050565b60006132378284612707565b915061324282612a5b565b915081905092915050565b60006132598286612738565b91506132658285612738565b91506132718284612707565b915061327c82613109565b9150819050949350505050565b6000613294826127b7565b91506132a08285612707565b91506132ab826129a9565b91506132b78284612707565b91506132c282612c59565b91508190509392505050565b60006132d982612f57565b91506132e58284612738565b91506132f082612e4b565b915081905092915050565b600061330682612f97565b91506133128284612738565b915061331d82612e4b565b915081905092915050565b600061333382612ffd565b915061333f8284612707565b915081905092915050565b6000613355826130a3565b91506133618285612707565b915061336c82613149565b91506133788284612707565b915061338382612c99565b91508190509392505050565b600061339b8285613198565b6020820191506133ab8284612707565b91508190509392505050565b60006133c38286613198565b6020820191506133d38285613198565b6020820191506133e38284612707565b9150819050949350505050565b60006020820190506134056000830184612677565b92915050565b60006080820190506134206000830187612677565b61342d6020830186612677565b61343a6040830185613189565b818103606083015261344c8184612695565b905095945050505050565b600060408201905061346c6000830185612677565b6134796020830184613189565b9392505050565b60006020820190506134956000830184612686565b92915050565b600060208201905081810360008301526134b581846126ce565b905092915050565b600060608201905081810360008301526134d781866126ce565b90506134e66020830185613189565b6134f36040830184612677565b949350505050565b60006020820190508181036000830152613514816127f7565b9050919050565b600060208201905081810360008301526135348161285d565b9050919050565b600060208201905081810360008301526135548161289d565b9050919050565b6000602082019050818103600083015261357481612903565b9050919050565b6000602082019050818103600083015261359481612943565b9050919050565b600060208201905081810360008301526135b481612ac1565b9050919050565b600060208201905081810360008301526135d481612b27565b9050919050565b600060208201905081810360008301526135f481612b8d565b9050919050565b6000602082019050818103600083015261361481612bf3565b9050919050565b6000602082019050818103600083015261363481612cd9565b9050919050565b6000602082019050818103600083015261365481612d19565b9050919050565b6000602082019050818103600083015261367481612d7f565b9050919050565b6000602082019050818103600083015261369481612de5565b9050919050565b600060208201905081810360008301526136b481612e8b565b9050919050565b600060208201905081810360008301526136d481612ef1565b9050919050565b600060208201905081810360008301526136f48161303d565b9050919050565b60006020820190506137106000830184613189565b92915050565b6000604051905081810181811067ffffffffffffffff8211171561373d5761373c613add565b5b8060405250919050565b600067ffffffffffffffff82111561376257613761613add565b5b601f19601f8301169050602081019050919050565b60008190508160005260206000209050919050565b600081519050919050565b600081519050919050565b600082825260208201905092915050565b600082825260208201905092915050565b600081905092915050565b60006137da8261394e565b91506137e58361394e565b9250827fffffffffffffffffffffffffffffffffffffffffffffffffffffffffffffffff0382111561381a57613819613a50565b5b828201905092915050565b60006138308261394e565b915061383b8361394e565b92508261384b5761384a613a7f565b5b828204905092915050565b60006138618261394e565b915061386c8361394e565b9250817fffffffffffffffffffffffffffffffffffffffffffffffffffffffffffffffff04831182151516156138a5576138a4613a50565b5b828202905092915050565b60006138bb8261394e565b91506138c68361394e565b9250828210156138d9576138d8613a50565b5b828203905092915050565b60006138ef8261392e565b9050919050565b60008115159050919050565b60007fffffffff0000000000000000000000000000000000000000000000000000000082169050919050565b600073ffffffffffffffffffffffffffffffffffffffff82169050919050565b6000819050919050565b82818337600083830152505050565b60005b8381101561398557808201518184015260208101905061396a565b83811115613994576000848401525b50505050565b600060028204905060018216806139b257607f821691505b602082108114156139c6576139c5613aae565b5b50919050565b60006139d78261394e565b91507fffffffffffffffffffffffffffffffffffffffffffffffffffffffffffffffff821415613a0a57613a09613a50565b5b600182019050919050565b6000819050919050565b6000613a2a8261394e565b9150613a358361394e565b925082613a4557613a44613a7f565b5b828206905092915050565b7f4e487b7100000000000000000000000000000000000000000000000000000000600052601160045260246000fd5b7f4e487b7100000000000000000000000000000000000000000000000000000000600052601260045260246000fd5b7f4e487b7100000000000000000000000000000000000000000000000000000000600052602260045260246000fd5b7f4e487b7100000000000000000000000000000000000000000000000000000000600052604160045260246000fd5b6000601f19601f8301169050919050565b613b26816138e4565b8114613b3157600080fd5b50565b613b3d816138f6565b8114613b4857600080fd5b50565b613b5481613902565b8114613b5f57600080fd5b50565b613b6b8161394e565b8114613b7657600080fd5b5056fe416e204e465420772f20494420257320686173206265656e206d696e74656420746f2025734142434445464748494a4b4c4d4e4f505152535455565758595a6162636465666768696a6b6c6d6e6f707172737475767778797a303132333435363738392b2f3c636972636c652063783d22313735222063793d223137352220723d2231373522202066696c6c3d2275726c28237374617229222066696c7465723d2275726c2823626c75722922202f3e3c706f6c79676f6e20706f696e74733d223137302031302c20333530203335302c20302033353022202066696c6c3d2275726c28237374617229222066696c7465723d2275726c2823626c75722922202f3e3c7265637420783d2230222020793d2230222077696474683d2233353022206865696768743d22333530222066696c6c3d2223303030222f3e3c7265637420783d2230222020793d2230222077696474683d2233353022206865696768743d22333530222066696c6c3d222366666622206f7061636974793d22302e3235222066696c7465723d2275726c28236e6f69736546696c74657229222f3e3c7265637420783d2230222020793d2230222077696474683d2233353022206865696768743d22333530222066696c6c3d2275726c28237374617229222066696c7465723d2275726c2823626c757229222f3ea2646970667358221220533e97751bb978026ce7a313cb320f2ee62758b529b5ebdffb67c0418592c1f664736f6c634300080000333c73766720786d6c6e733d27687474703a2f2f7777772e77332e6f72672f323030302f73766727207072657365727665417370656374526174696f3d27784d696e594d696e206d656574272076696577426f783d273020302033353020333530273e3c7374796c653e2e62617365207b2066696c6c3a2077686974653b20666f6e742d66616d696c793a2073657269663b20666f6e742d73697a653a20323470783b207d3c2f7374796c653e3c66696c7465722069643d276e6f69736546696c746572273e3c6665476175737369616e426c757220737464446576696174696f6e3d2735302720726573756c743d27626c7572272f3e3c666554757262756c656e636520747970653d276672616374616c4e6f6973652720626173654672657175656e63793d2731302e3527206e756d4f6374617665733d273827202f3e3c6665436f6c6f724d617472697820747970653d277361747572617465272076616c7565733d27302720726573756c743d27677261696e272f3e3c6665436f6d706f73697465206f70657261746f723d27696e2720696e3d27626c75722720696e323d27677261696e27202f3e3c2f66696c7465723e3c66696c7465722069643d27626c7572273e3c6665476175737369616e426c757220737464446576696174696f6e3d27302e332720726573756c743d27626c757227202f3e3c2f66696c7465723e",
  "linkReferences": {},
  "deployedLinkReferences": {}
}